:020000040800F2
:10000000C0080020990100082D3E0008CD2C0008F2
:10001000293E0008C9040008E14200080000000071
:10002000000000000000000000000000193F000870
:100030008906000800000000313E0008A9410008C0
:10004000B3010008B3010008B3010008B3010008C0
:10005000B3010008B3010008B3010008B3010008B0
:10006000B3010008B3010008B3010008B3010008A0
:10007000B3010008B3010008B3010008B301000890
:10008000B3010008B3010008B3010008B301000880
:10009000B3010008B3010008B3010008B301000870
:1000A000B3010008B1410008B3010008B301000822
:1000B000BD410008B3010008B3010008B301000806
:1000C000B3010008B3010008B3010008B301000840
:1000D000B3010008B3010008B3010008D5420008CD
:1000E000B3010008B3010008B301000800F002F8F2
:1000F00000F042F80AA090E8000C82448344AAF180
:100100000107DA4501D100F037F8AFF2090EBAE87D
:100110000F0013F0010F18BFFB1A43F0010318473B
:100120000C6200002C620000103A24BF78C878C12D
:10013000FAD8520724BF30C830C144BF04680C60ED
:10014000704700000023002400250026103A28BF35
:1001500078C1FBD8520728BF30C148BF0B60704739
:10016000642900F0AB80632900F0678100207047AC
:100170001FB51FBD10B510BD00F06BF91146FFF79C
:10018000F7FF05F0D7F900F089F903B4FFF7F2FFA4
:1001900003BC00F091F90000094880470948004776
:1001A000FEE7FEE7FEE7FEE7FEE7FEE7FEE7FEE727
:1001B000FEE7FEE704480549054A064B7047000084
:1001C000AD410008ED000008C0020020C00800207A
:1001D000C0040020C00400200FB41CB5074B06AAC1
:1001E0007B4469460090059800F005F900206946B7
:1001F00000F014F91CBC5DF814FB0000390200008B
:100200002DE9F0410E460446002020622046E168B8
:10021000884730B3252805D0D4E901219047206ACA
:10022000401CF2E7E168204600278847050018D007
:10023000A5F14100192802D820354FF40067324655
:10024000294620462760FFF78BFF40B1012804D0E4
:10025000F61D26F007060836D8E7361DD6E72846ED
:10026000DAE7206ABDE8F08170B50C460546012A40
:1002700005D02878800600D5EA69002302E0012332
:1002800005E05B1C934202D2E05C0028F9D1A8692A
:10029000E618C01AA861286A184428622846AFF3F5
:1002A000008004E0D5E9012114F8010B9047B44225
:1002B000F8D32846AFF3008070BD00002DE9F0416F
:1002C0000646002410687529314616A510D0AFF3F4
:1002D0000080002802DA404213A507E031688A074F
:1002E00001D512A502E0490704D511A5012401E0BA
:1002F000AFF3008000210A2206F1240709E0B0FBD9
:10030000F2FCB0FBF2F302FB1C00303078541846CC
:10031000491C0028F3D123462A463046BDE8F04167
:1003200000F00BB8000000002D0000002B000000C2
:10033000200000007047704770472DE9F0470D46D8
:1003400099469246044600F124080168880604D5BF
:10035000E06921F01001216000E00120A84201DDE8
:10036000471B00E00027A1697A1902EB0900081A6F
:10037000A0612078C00602D42046AFF3008000269A
:1003800008E0D4E901211AF806009047206A401CD1
:10039000761C20624E45F4DB2078C0060AD5204644
:1003A000AFF3008006E0D4E9012130209047206AB5
:1003B000401C2062381EA7F10107F4DC07E0D4E9F5
:1003C000012118F805009047206A401C2062281E71
:1003D000A5F10105F3DC2046AFF30080207800068C
:1003E00002D50220BDE8F0870120FBE701694A1C25
:1003F00002610878704700B58FB0CDE90131002166
:10040000059105497944CDE9031011466846FFF787
:10041000F7FE0FB000BD0000E5FFFFFF0A6802F81D
:10042000010B0A60704710B5436913B1AFF3008048
:1004300001E0FFF719FF012010BD127800F124013F
:100440000A7000224A700122EDE711684FF0FF3276
:10045000E9E7754600F02CF8AE46050069465346BC
:1004600020F00700854618B020B5FFF7A3FEBDE8D1
:1004700020404FF000064FF000074FF000084FF00B
:10048000000BAC46ACE8C009ACE8C009ACE8C00958
:10049000ACE8C00921F007018D46704710B504464D
:1004A000AFF300802046BDE81040FFF76EBE0000AD
:1004B000004870474800002001491820ABBEFEE705
:1004C0002600020070470000FEE7000040F2F40042
:1004D000C2F20000017D90F82F208A4213D1427DA4
:1004E00090F8303093420ED1827D90F831309342B3
:1004F00009D1C27D90F83230934204D1027E90F847
:10050000333093425FD090F834208A4213D1427D39
:1005100090F8353093420ED1827D90F83630934278
:1005200009D1C27D90F83730934204D1027E90F811
:100530003830934247D090F839208A4213D1427D17
:1005400090F83A3093420ED1827D90F83B3093423E
:1005500009D1C27D90F83C30934204D1027E90F8DC
:100560003D3093422FD090F83E208A4213D1427DF5
:1005700090F83F3093420ED1827D90F84030934204
:1005800009D1C27D90F84130934204D1027E90F8A7
:100590004230934217D090F843208A4216D1417DD1
:1005A00090F844208A4211D1817D90F845208A42FA
:1005B0000CD1C17D90F846208A4207D1017E90F887
:1005C0004700884202D10120704700BF00207047D9
:1005D0002DE9F04784B040F60008C4F201088A46CD
:1005E00006464046102100224FF0000900F0BAFBF9
:1005F000802040F2B01540EA4600C2F200058DF8B6
:10060000090064240DF1090102AA2846012300947F
:1006100001F0C4F90DF10B010DF10A022846012386
:100620008DF80B90009401F0B9F99DF80A704046DE
:100630001021012200F096FB40461021002227EAFB
:100640000A0700F08FFB7E2000EA46008DF80D00BF
:100650000DF10D0103AA28460123009401F09EF933
:100660000DF10F010DF10E02284601238DF80F70D8
:10067000009401F093F940461021012200F072FB32
:1006800004B0BDE8F08700007047000070B542F28A
:100690000C060446C4F2020600F06AFB3168C90782
:1006A00018D13068800644BF202030603068C00612
:1006B00007D43069C00704D1306840075CBF002010
:1006C00070BD3068C00623D40020316849072BD4A0
:1006D00034E000BF002C47D00546601C0ED13068C6
:1006E000C007DED03068C0071CBF30685FEAC0704A
:1006F000D7D03068C007F2D1D3E700BF00F038FB95
:10070000401BA04230D83068C007F7D1C9E700BF0E
:1007100040F29820C2F20000C16941F00201C161BB
:1007200010203168490709D540F29821C2F2000132
:10073000CA6940F0040042F00102CA613169C90788
:1007400002D13060012070BD40F29821C2F2000158
:10075000CA6942F00402CA61316921F001013161C4
:100760003060012070BD00BF032070BD10B586B0A1
:10077000044600F0CBF901200590CDE903040020E8
:10078000029002A801A900F0E9F800F05FF906B0B4
:1007900010BD000070B5A2B301324FF0FF3303EB80
:1007A0005203032BC2F3410C02D2002316E000BF18
:1007B000520822F0030E0022002300BF845A85183D
:1007C0008C526C888E187480AC880433B480EC88AA
:1007D0009E4502F10802F480F0D11144BCF1000FF3
:1007E00008BF70BD30F81320BCF1010F0A8008D09B
:1007F00000EB43004288BCF1020F4A801CBF808896
:10080000888070BD70B516460D46044600F07EF92E
:100810006EB1701C4608023D35F8022F01202146BA
:10082000002300F01DF9013E04F10204F4D1BDE8FB
:10083000704000F00BB90000014690F8210002283A
:1008400016D10868D1E90FC3026822F00E020260D7
:10085000026822F001020260012000FA03F2CCF8E3
:10086000042081F821000020002281F82020704718
:10087000042088630120002281F8202070470000B6
:1008800080B590F82110022924D10268116821F066
:100890000E0111602F211368C4F202018A4240F256
:1008A0000401C4F2020123F00103136016DD3023BA
:1008B000C4F202039A421DD04423C4F202039A42B6
:1008C0001CD05823C4F202039A421DD14FF4803346
:1008D00022E000BF04218163012080BD0823C4F20F
:1008E00002039A420ED01C23C4F202039A420BD197
:1008F000102311E04FF480730EE000BF4FF48053DB
:100900000AE000BF012307E001F1680C4FF080739B
:10091000624508BF4FF480130B60012180F821105D
:10092000426B002180F820100AB190470021084650
:1009300080BD0000B0B5044600F01AFA054640F24A
:100940000000C2F200000078611C18BF044400BF20
:1009500000F00EFA401BA042FAD3B0BD2DE9F043DF
:1009600081B040F29826C2F20006327E012A03D1FD
:10097000022001B0BDE8F083054601202C683076E6
:100980004CF250308846FFF781FE022C1CD1002823
:100990004ED1002042F21004F061C4F2020420683B
:1009A00040F004002060206840F0400020604CF2DD
:1009B0005030FFF76BFE216821F004012160002117
:1009C000317601B0BDE8F08390BB4FF0FF30C8F83E
:1009D0000000D5E9027007EB8020874228D242F25E
:1009E0001004C4F202044FF0000900BFC6F81C90C6
:1009F000206840F0020020606760206840F04000FE
:100A000020604CF25030FFF741FE216821F00201D6
:100A1000216098B9D5E9020107F5806700EB8120D4
:100A20008742E3D300200021317601B0BDE8F08396
:100A300001200021317601B0BDE8F083C8F80070D4
:100A40000021317601B0BDE8F083000042F21001D0
:100A5000C4F20201086840F0800200200A6070477A
:100A60002DE9F04F81B040F29829C2F20009924678
:100A700099F81820012A03D1022001B0BDE8F08FB7
:100A80008046012089F818004CF250309B460E46F3
:100A9000FFF7FCFDA0BB404642F21007B8F1020F81
:100AA00018BF0420C4F20207B8F1010F08BF404686
:100AB00045424FF000080024C4F12001C9F81C8011
:100AC0002AFA04F00BFA01F13A680843B4F1200164
:100AD00058BF2BFA01F042F00101396026F8020BF1
:100AE0004CF25030FFF7D2FD3968013521F0010298
:100AF00048F100013A6018B9002904F11004DBD074
:100B0000002189F8181001B0BDE8F08F42F204000E
:100B1000C4F20200C16809065CBF0020704740F2C1
:100B20002311C4F26751016048F6AB11CCF6EF51C6
:100B30000160C068C0B2C009704700002DE9F04FE5
:100B400082B00E68002E00F0038141F20042C4F230
:100B50000102042340F2004E904208BF03234FF6E7
:100B6000FF7CC4F2010E009300240123C1F2100C9B
:100B70004FF0000A4FF0000949E000BF012704F0E0
:100B80000C030F229A402BEA020207FA03F34FEA02
:100B90009A051A4346F82520D1F804B040F20C45D6
:100BA0005FEACB22DEF8082054BF22EA080242EABC
:100BB0000802C4F20105CEF808202A685FEA8B23F8
:100BC00054BF22EA080242EA08022A605FEA8B3335
:100BD000DEF8042054BF22EA080242EA08025FEA73
:100BE000CB33CEF80420DEF800204FF0010354BFD1
:100BF00022EA080242EA0802CEF800200E680AF152
:100C0000010A36FA0AF204F1040400F0A18003FAA2
:100C10000AF816EA080FF1D04E68664512DC122E6B
:100C200056D8DFE806F0350B45495555555555550D
:100C3000555555555555554D510000BFD1F80C909F
:100C400046E000BF4FF6FF72C1F2210296420FDC70
:100C50000022C1F2110296421AD00022C1F2120201
:100C6000964215D00022C1F22102964210D02FE008
:100C70000022C1F2220296420AD00022C1F23102C1
:100C8000964205D00022C1F23202964220D100BF26
:100C90008A684AB1012A14BFC0F81480C0F81080D5
:100CA0004FF0080914E000BF4FF0040910E000BF46
:100CB000CA6802F108090BE04FF0000908E000BF24
:100CC000CA6802F1040903E0CA6802F10C0900BF16
:100CD00022460646BAF1080F24BF203A0436376888
:100CE0000F25954027EA050509FA02F22A433260EA
:100CF000CA79D2067FF582AF41F21803C4F202032B
:100D00001A68AEF57E7642F001021A601A6802F0A7
:100D100001020192019A2AF0030256F802B040F64D
:100D20000002C4F20102904210D040F60042C4F228
:100D3000010290423FF422AF41F20002C4F20102EC
:100D4000009F904208BF022719E700BF002716E75F
:100D500002B0BDE8F08F00008068084018BF012095
:100D600070470000002A08BF0904016170470000B5
:100D700040F2B820C2F200000068704770B5B8B306
:100D8000044690F83D0028B9002084F83C00204635
:100D900000F09AF9242084F83D002068016821F0D1
:100DA00001010160016841F400410160016821F422
:100DB0000041016000F05EFB48F28041C0F21E017C
:100DC00040F60013D4F804E088424FF00001C0F26E
:100DD0003D0348F2A16C4FF0000238BF0121984258
:100DE000C0F2010C38BF0122E64538BF0A460AB1FD
:100DF000012070BD4DF68361C4F21B31A0FB0112CE
:100E00002168950C4B684FF4967623F03F0343EA34
:100E10009243754344F6D3564B60C1F262060B6AA7
:100E2000A5FB0656B50923F03F03E64538BF950CF0
:100E30006A1C1A430A62CA6948F2A0664CF6FF733C
:100E4000C0F20106B64522EA03020BD801384FEA88
:100E50004E03B0FBF3F001306FF31F30042898BF4E
:100E600004201EE0A368013863B119230EFB03F3CD
:100E7000B0FBF3F001306FF31F3078B100F5804024
:100E800008E000BF0EEB4E03B0FBF3F001306FF350
:100E90001F3028B100F5004003E000BF012000E052
:100EA00001201043C8610868D4E9072320F0C0007E
:100EB000104318430860886848F2FF3204F10C06BA
:100EC00090434CCE18431043A5698860C86820F051
:100ED000FF0030432843C860086840F00100086004
:100EE00000202021206484F83D10206384F83E0017
:100EF00070BD00002DE9F04383B01E4617468946B9
:100F00000446FFF735FF94F83D10202920D105460F
:100F1000206800BF8169890716D5FFF729FF411BAB
:100F200020681A29F6D381698907F3D5002020218A
:100F3000206384F83D1084F83E00216C41F02001CC
:100F4000216484F83C0003E094F83C10012903D1AB
:100F5000022003B0BDE8F083012184F83C10016851
:100F6000C90703D1016841F001010160016840F245
:100F7000020821F400610160212184F83D10102154
:100F800084F83E100021216467626685618DC0F29D
:100F900001082185A8F10211E162E16A0A9E11F5BA
:100FA000803F18BF01291DD1016841F480710160A3
:100FB00020464FF0011100223346009501F0E8FE73
:100FC00050B120680068C00544BF4FF40070206431
:100FD000012003B0BDE8F0832069B0F5804F07D150
:100FE000FE2015E00829DFD0216B1229DCD0DFE7D5
:100FF000062000EAD9102168F030086108F10601E6
:10100000204632462B4601F0ADFF0028E0D1FF20FC
:10101000216800EA090008612046414632462B4615
:1010200001F0A0FF0028D3D1002002902068416980
:10103000029180690290029806E000BF2046314686
:101040002A4601F045FE18BB208D68B32046314684
:101050002A4601F0F7FFD8B9606A2168024612F803
:10106000013B0B616262628D013A6285228D531EE3
:1010700023854F697F07E1D51B04DFD04378023019
:101080000B616062608D01386085901E2085D5E718
:10109000206C04289CD12068016841F40071016033
:1010A000012003B0BDE8F0832068016841F40071BD
:1010B0000160202084F83D00002084F83E0084F880
:1010C0003C0003B0BDE8F08310B586B0006845F27F
:1010D0000042C4F2000200219042049102D006B006
:1010E00010BD00BF41F21804C4F20204206802A936
:1010F00040F008002060206800F00800019001988E
:101100004FF440700290122003900320059040F6A7
:101110000040C4F20100FFF711FD0420C4F20100F9
:10112000016841F0E06141F002010160606840F453
:1011300000106060606800F400100190019806B033
:1011400010BD000040F2000040F2B821C2F20000E1
:10115000C2F2000100780A6810440860704700007D
:1011600080B542F20000C4F20200016841F01001B3
:101170000160032000F08EF8002000F005F800F078
:1011800027F8002080BD000070B540F20006C2F2D2
:10119000000640F240013278C2F200014FF47A7347
:1011A0000968B3FBF2F20446B1FBF2F1084600F025
:1011B0005DFD0F2C4FF0010508D838B94FF0FF3016
:1011C00021460022002500F039F87460284670BDE1
:1011D00082B041F21800C4F202000168022241F01C
:1011E00001010160016801F001010191019941686B
:1011F00041F080514160406800F0805000900098BC
:101200000420C4F20100016862F31A61016002B0B7
:1012100070470000002848BF7047C1B200F01F00AF
:10122000012202FA00F04EF20012CEF2000242EA6F
:10123000D10121F0030108607047000010B54EF69F
:101240000C5CCEF2000CDCF80030C3F3022E8EF002
:101250000704042C28BF0424BEF103034FF0FF3E13
:101260000EFA04F438BF0023A14399400EFA03F3A9
:101270009A43114300F00F0200F160430901043A60
:1012800003F564436244002848BF02F10C0319705F
:1012900010BD00004EF60C51CEF200010A684FF668
:1012A000FF031A4060F30A2242F0806040F0FD70B4
:1012B000086070472DE9F04381B0002800F0858078
:1012C00042F20008C4F202080446D8F800000D46B5
:1012D00000F0070088420CD2D8F8000020F0070088
:1012E0002843C8F80000D8F8000000F00700A84222
:1012F0006BD1206841F204098107C4F2020917D5B5
:10130000410705D5D9F8001041F4E061C9F8001093
:10131000010705D5D9F8001041F46051C9F8001053
:10132000D9F80010A26821F0F0011143C9F80010AB
:10133000C00741D1D8F8000000F00700A8420CD93E
:10134000D8F8000020F007002843C8F80000D8F8BB
:10135000000000F00700A84237D12068410707D5F8
:10136000D9F80010E26821F4E0611143C9F80010D7
:10137000000708D5D9F80000216920F4605040EA40
:10138000C100C9F80000D9F8002002F00C000828BC
:1013900041F20020C0F27A0050D146F23223C2F36B
:1013A0008341C0F60003595CD2033BD440F60010E1
:1013B000C0F23D00484341E0606802280AD001289D
:1013C0002AD159F8041C890308D4012001B0BDE8D2
:1013D000F08300BF59F8041C8901F6D5D9F8001034
:1013E00021F003010843C9F80000FFF7C1FC0646DD
:1013F00041F28837D9F80000616800F00C00B0EBCA
:10140000810F97D0FFF7B4FC801BB842F2D90320BC
:1014100001B0BDE8F08300BF59F8041C8907D4D59A
:10142000DCE700BFD9F8002046F23023C2F3404287
:10143000C0F600039A5C4843B0FBF2F0D9F8001004
:1014400046F21822C1F30311C0F60002515C40F2CB
:10145000400220FA01F140F20400C2F200000068EC
:10146000C2F200021160FFF78FFE002001B0BDE85C
:10147000F083000040F2400041F20401C2F200009B
:10148000C4F202010068096846F22822C1F3022171
:10149000C0F60002515CC8407047000040F24000B6
:1014A00041F20401C2F20000C4F2020100680968BE
:1014B00046F22822C1F3C221C0F60002515CC840A6
:1014C000704700002DE9F04182B0002868D0044642
:1014D000007841F20006C007C4F2020625D0706809
:1014E00000F00C0004281BD0706800F00C000828E5
:1014F00002D17068C00313D46068002800F06881CE
:10150000B0F5A02F00F07C81B0F5803F00F07C8129
:10151000306820F480303060306820F4802076E13C
:101520003068800301D56068D0B32078800718D573
:10153000706810F00C0F07D0706800F00C000828DD
:101540006ED17068C0036BD43068800702D5206903
:10155000012825D13068616920F0F80040EAC10017
:101560003060207800071FD42078400732D4E56926
:1015700095B1706800F00C00082840F08F80012DB4
:101580000ED07068216A00F480328A4208D1616A04
:1015900000F47010884203D1002002B0BDE8F08151
:1015A000012002B0BDE8F081A069002862D00020CF
:1015B000C4F242200121C0F88014FFF7D9FB054690
:1015C000706A800700F18C80FFF7D2FB401B022875
:1015D000F6D92AE1F06910F0805808D1F06940F09E
:1015E0008050F061F06900F080500090009847F260
:1015F0000007C4F200073868C00529D4386840F4F1
:1016000080703860FFF7B4FB054600BF3868C0053E
:101610001ED4FFF7ADFB401B6428F7D905E100BFDE
:101620002069002840F20000C4F2422000F08280CD
:1016300001210160FFF79CFB054600BF3068800771
:101640003FF588AFFFF794FB401B0228F6D9ECE08A
:10165000E068002800F08080052800F097800128CD
:1016600000F09880306A20F001003062306A20F08B
:10167000040092E00020C4F242200021C0F880144F
:10168000FFF776FB054600BF706A80077FF56CAFF9
:10169000FFF76EFB401B0228F6D9C6E00027C4F214
:1016A000422700203866FFF763FB022D05460BD169
:1016B0003068800140F1BE80FFF75AFB401B0228D2
:1016C0004FF00300F4D968E7306880017FF564AF1C
:1016D000FFF74EFB401B02284FF00300F4D95CE7F4
:1016E00040F24000C2F20000006844F6D351C1F25B
:1016F0006201A0FB0101480A019000BF00BF0198F0
:10170000411E002801913FF42FAF00BF0198411EF8
:10171000002801913FF428AF00BF0198411E002826
:1017200001913FF421AF00BF0198411E00280191B3
:10173000E4D119E700210160FFF71AFB054600BF5D
:10174000306880077FF50DAFFFF712FB401B0228C2
:101750004FF00300F4D920E7306A20F00100306236
:10176000306A20F004003062FFF702FB054641F2C8
:10177000883700BF306A800720D5FFF7F9FA401B91
:10178000B8424FF00300F5D907E700BF306A40F0D8
:1017900004003062306A40F001003062FFF7E8FA7E
:1017A000054641F2883700BF306A800706D4FFF74C
:1017B000DFFA401BB842F7D937E000BFB8F1000F9D
:1017C0007FF4D5AEF06920F08050F061CFE600BF25
:1017D000306820F480303060306820F48020306041
:1017E000FFF7C6FA054600BF306880037FF59DAE5F
:1017F000FFF7BEFA401B64284FF00300F4D9CCE693
:10180000306840F480203060306840F480303060D0
:10181000FFF7AEFA054600BF306880033FF585AE9E
:10182000FFF7A6FA401B6428F6D9032002B0BDE8F2
:10183000F08100BF206AB0F5803F05D17168A268D1
:1018400021F40031114371607168626A21F47411EE
:1018500011430843706001203866FFF789FA044697
:10186000306880013FF598AEFFF782FA001B02282E
:101870004FF00300F4D990E670B538B10446406AE1
:1018800030B10020206104F1140007E0012070BD98
:101890006068B0F5827F03D004F11C000021016074
:1018A0000026A66294F8510020B9204684F85060C2
:1018B00000F038F8022084F8510094E8071001F491
:1018C0008271036802F4044223F040030360236939
:1018D00011440CF40062114403F0020263691144E4
:1018E00003F00102A369E569114403F40072114495
:1018F00005F03802256A114405F08002A56A1143FB
:1019000005F4005211430160042101EA13414160D2
:10191000C16921F40061C1610120666584F851004C
:10192000304670BD70B586B040F60004C4F20104C4
:10193000006804F5205100268842049602D006B0C3
:1019400070BD00BF41F21800C4F20200016802AD90
:1019500041F480510160016801F4805101910199C5
:10196000016841F0040101600068294600F00400AC
:1019700001900198A020029002200390032005907E
:101980002046FFF7DBF84020CDE902062046294635
:101990000496FFF7D3F806B070BD00002DE9F043C0
:1019A00081B0044690F85000012803D1022001B014
:1019B000BDE8F08301201E4615460F4684F850000E
:1019C000FFF7D6F994F851108146012912D06068CA
:1019D000B0F5827F40F0A480A06800284FF002009C
:1019E00008BF042906D0002184F8501001B0BDE8DA
:1019F000F08300BF002F4FF0010018BF002DF2D080
:101A0000002EF0D094F85100002104281CBF0520BE
:101A100084F851006165A563E687A6872763E6869B
:101A20002068A686216461640168490603D40168C0
:101A300041F0400101606168731EE268B1FA81F112
:101A4000B3FA83F3DDF8208049095B09B2F5006F32
:101A500041EA03016CD131B137F8021BC160276341
:101A6000E08E0138E086012518F1010031D101E056
:101A7000FFF77EF9E08E18B9E08F002800F0C080F3
:101A80002068816889070CD5E18E51B1012D08D1FC
:101A9000216B002531F8022BC2602163E18E0139F0
:101AA000E1868168C907E3D0E18F0029E0D0C068F2
:101AB000A16B012521F8020BA163E08F0138E087BB
:101AC000D6E700BFFFF754F9A0EB0900404580F0CE
:101AD000AB80E08E18B9E08F002800F0918020687C
:101AE000816889070CD5E18E51B1012D08D1216B98
:101AF000002531F8022BC2602163E18E0139E186B5
:101B00008168C907DED0E18F0029DBD0C068A16BF6
:101B1000012521F8020BA163E08F0138E087D1E7AE
:101B20000220002184F8501001B0BDE8F08300BF0E
:101B300039B139780173206B01302063E08E0138B0
:101B4000E086012518F1010032D101E0FFF710F91C
:101B5000E08E10B9E08F002852D020688168890794
:101B60000ED5E18E61B1012D0AD1216B00250978D6
:101B70000173216B206801312163E18E0139E18617
:101B80008168C907E2D0E18F0029DFD0C068A16B6E
:101B900001250870A06B0130A063E08F0138E08759
:101BA000D4E700BFFFF7E4F8A0EB090040453BD2C3
:101BB000E08E08B9E08F18B32068816889070ED5D8
:101BC000E18E61B1012D0AD1216B002509780173E5
:101BD000216B206801312163E18E0139E186816842
:101BE000C907DFD0E18F0029DCD0C068A16B0125D7
:101BF0000870A06B0130A063E08F0138E087D1E767
:101C00002046802142464B4602F014F9B0B1606D87
:101C100040F020006065202060650120002184F8EC
:101C2000501001B0BDE8F083012084F8510003207A
:101C3000002184F8501001B0BDE8F083A06838B9E5
:101C4000002000902068C168009180680090009892
:101C5000606D00284FF0010004BF84F8510000209F
:101C6000002184F8501001B0BDE8F083411E00202F
:101C7000B0EB116F1CBF012070474EF21002CEF284
:101C8000000251604EF62351CEF20001F0230B709A
:101C90000721906011607047704700007047000096
:101CA00010B590F83C20012A4FF0020233D080F8A2
:101CB0003D200268D2F804E0D2F808C00C682EF08B
:101CC0007003234340F2FF74C4F20004A242536045
:101CD0000ADCB2F1804F13D040F20043C4F200039B
:101CE0009A420DD011E000BF42F60043C4F2010356
:101CF0009A4205D040F60003C4F200039A4204D190
:101D000049682CF08003194391600121002280F87A
:101D10003D1080F83C20104610BD0000002804BF94
:101D20000120704710B5044690F83D0028B9002006
:101D300084F83C00204600F067F8022084F83D005B
:101D4000206840F2FF730268C4F2000342F6004CC0
:101D50009842C4F2010C15DCB0F1804F1AD040F269
:101D60000041C4F20001884214D0984218DCB0F15E
:101D7000804F1DD040F20041C4F20001884217D0CC
:101D80001AE000BF604505D040F60001C4F2000132
:101D90008842EAD1A16822F070020A439842E6DD47
:101DA000604505D040F60001C4F20001884203D12D
:101DB000216922F440720A43A36922F08001D4F819
:101DC00004E0E268194360450160C262C0F828E09F
:101DD00002D16169CCF8301001214161002084F802
:101DE000461084F83E1084F83F1084F8401084F8C0
:101DF000411084F8421084F8431084F8441084F8A9
:101E0000451084F83D1010BD10B582B00068B0F1E7
:101E1000804F15D042F60041C4F20101884229D119
:101E200041F21800C4F202000168192441F4006173
:101E30000160006800F40060019001980EE000BFAE
:101E400041F21800C4F2020041681C2441F0010173
:101E50004160406800F00100009000982046002199
:101E60000022FFF7EBF9204602B0BDE81040FFF773
:101E7000D1B900BF02B010BD90F83D1001291CBFC0
:101E800001207047022180F83D10006840F2FF7287
:101E9000C168C4F20002904241F00101C16009DC56
:101EA000B0F1804F12D040F20041C4F200018842EC
:101EB0000CD012E042F60041C4F20101884205D084
:101EC00040F60001C4F20001884206D1816801F0A9
:101ED0000701062904BF00207047016841F0010195
:101EE000016000207047000080B590F83C20012A76
:101EF0004FF0020200F0C28080F83D20D0F800C010
:101F00004FF67772DCF8083023EA0202CCF808209A
:101F10000B684F2B28DC1F2B44DD202B45D0302BAA
:101F200043D0402B40F0AC80D1F804E0C968DCF825
:101F30002030DCF8202022F00102CCF82020DCF850
:101F4000182022F0F00242EA011123F00A0242EACC
:101F50000E02CCF81810CCF82020DCF8081041F064
:101F6000470121F0300180E06F2B27DDB3F5005FE2
:101F700048D0B3F5805F7AD0702B40F08180D1E9F2
:101F800001E3C968DCF8082043EA0E0322F47F422B
:101F900043EA01211143CCF80810DCF8081041F0A5
:101FA000770162E00BB1102B6AD1DCF8081021F048
:101FB0007001194341F0070157E000BF502B35D0A5
:101FC000602B5DD1D1F804E0C968DCF82030DCF882
:101FD000202022F01002CCF82020DCF8182022F477
:101FE000704242EA013123F0A00242EA0E12CCF81C
:101FF0001810CCF82020DCF8081041F0670121F01F
:10200000100132E0D1E901E3C968DCF8082043EAB5
:102010000E0322F47F4243EA01211143CCF8081059
:10202000DCF8081041F480411FE000BFD1F804E063
:10203000C968DCF82030DCF8202022F00102CCF85E
:102040002020DCF8182022F0F00242EA011123F0EF
:102050000A0242EA0E02CCF81810CCF82020DCF874
:10206000081041F0570121F02001CCF8081000229F
:10207000012180F83D10002180F83C10104680BD01
:102080000122F5E77047000010B5016804460869B1
:10209000800744BFC8685FEA807039D40869400788
:1020A00044BFC8685FEA40703ED40869000744BF77
:1020B000C8685FEA007045D40869C00644BFC868B4
:1020C0005FEAC0604AD40869C0071CBFC8685FEAFD
:1020D000C07051D10869000644BFC8685FEA00605B
:1020E00052D40869400644BFC8685FEA406053D4D0
:1020F0000869800646BFC8685FEA806010BD6FF05F
:10210000200220460A61BDE81040FFF7C7BD00BFAE
:102110006FF002000861012020778869800743D0B2
:102120002046FFF7AFFF45E06FF004000861022092
:102130002077886910F4407F40D02046FFF7A2FF47
:1021400042E000BF6FF00800086104202077C869F2
:1021500080073DD02046FFF795FF3FE06FF010006D
:10216000086108202077C86910F4407F3AD02046E3
:10217000FFF788FF3CE000BF6FF0010008612046D8
:1021800000F03EF82168A5E76FF080000861204666
:10219000FFF782FD2168A4E76FF040000861204648
:1021A00000F092F82168A3E7204600F025F82046C9
:1021B00000F024F82168002020776FE7204600F027
:1021C0001BF8204600F01AF82168002020776CE701
:1021D000204600F011F8204600F010F82168002099
:1021E000207769E7204600F007F8204600F006F85F
:1021F00021680020207766E77047000070470000E4
:1022000070B504460068B0F1804F07D102F062FF5C
:1022100040F2F401C2F200010870206840F60004A8
:10222000C4F2010404F51051884201D070BD00BF12
:1022300020460821FEF790FD40F2F405C2F20005A9
:1022400030B1A87A012819D00228EFD129E000BFC7
:10225000FEF78EFD2861204601210122FEF782FD56
:1022600020460821FEF778FD0028F9D004F58060AB
:10227000202101220126FEF775FDAE72FEF778FDE2
:102280002969401AC82809D304F58060202100225A
:10229000FEF768FD0220A87203E000BFA87A0228BA
:1022A000C4D1FEF765FD2969401A41F288318842A0
:1022B00038BF70BD2046012100220024FEF752FDE8
:1022C000AC722C6170BD00007047000070470000C8
:1022D00070470000B0B582B0044600680168C3686A
:1022E000426901F02F05202D03F0200506D12DB104
:1022F000204602B0BDE8B04001F06CBF5FEA017C4F
:102300001EBF02F0010E03F4907212EB0E0253D1C5
:10231000226B012A05D111F0100218BF13F0100230
:1023200036D10A0622D513F080021FD094F841104E
:1023300021293FD1A168B1F5805F03D1216900292E
:1023400000F07082216A4A1C226209784160E18CA7
:1023500001390A04E1842DD1C16821F08001C160F6
:10236000C16841F04001C16002B0B0BD490621D54D
:1023700013F040011ED0C16821F04001C16020214E
:10238000204684F8411002B0BDE8B04000F09CBC8B
:102390000021019101680191416801910199406911
:1023A000400613D4A08DE18DE28D002A18BF88422B
:1023B00040F0BA8102B0B0BDCA0718BF13F48072F2
:1023C00040F0B6804A0700F1B980BEE0E06B0168DA
:1023D00049688AB2002AEDD0A38D9A42EAD2E185FB
:1023E0008069202800F09C80206850E8030F216855
:1023F00020F4807041E80302DAB1206850E8030F4E
:10240000216820F4807041E8030292B1206850E80E
:10241000030F216820F4807041E803024AB120686C
:1024200050E8030F216820F4807041E80302002A7D
:10243000DAD1206850E8050F216820F0010041E85A
:102440000502DAB1206850E8050F216820F001008C
:1024500041E8050292B1206850E8050F216820F09C
:10246000010041E805024AB1206850E8050F2168E3
:1024700020F0010041E80502002ADAD1206850E886
:10248000050F216820F0400041E80502DAB120681C
:1024900050E8050F216820F0400041E8050292B1A4
:1024A000206850E8050F216820F0400041E805024F
:1024B0004AB1206850E8050F216820F0400041E84B
:1024C0000502002ADAD1202084F84200002020638F
:1024D000206850E8030F216820F0100041E8030253
:1024E000DAB1206850E8030F216820F0100041E8BD
:1024F000030292B1206850E8030F216820F0100019
:1025000041E803024AB1206850E8030F216820F037
:10251000100041E80302002ADAD1E06BFEF78CF9E3
:1025200002206063A08DE18D401A81B2204674E1E3
:10253000626C42F0010262644A0706D5BEF1000FE8
:1025400003D0626C42F0020262648A0706D5BEF1D3
:10255000000F03D0626C42F004026264BCF1000F11
:1025600009D545EA0E02B2FA82F2520903D1626C31
:1025700042F008026264626C002A3FF41BAF11F063
:10258000200118BF002D03D0204601F023FE206853
:102590004069616C00F0400001F00801401800F053
:1025A000B58000BF206850E8030F216820F49070C8
:1025B00041E80302BAB3206850E8030F216820F411
:1025C000907041E8030272B3206850E8030F21685D
:1025D00020F4907041E803022AB3206850E8030F0A
:1025E000216820F4907041E80302002ADAD11AE051
:1025F000206850E8050F216820F0010041E805023D
:10260000DAB1206850E8050F216820F0010041E8A8
:10261000050292B1206850E8050F216820F0010002
:1026200041E805024AB1206850E8050F216820F012
:10263000010041E80502002ADAD1206B012824D1EB
:10264000206850E8030F216820F0100041E80302E1
:10265000DAB1206850E8030F216820F0100041E84B
:10266000030292B1206850E8030F216820F01000A7
:1026700041E803024AB1206850E8030F216820F0C6
:10268000100041E80302002ADAD1202084F8420039
:10269000002020632068406940063FD5206850E84C
:1026A000050F216820F0400041E80502DAB12068FA
:1026B00050E8050F216820F0400041E8050292B182
:1026C000206850E8050F216820F0400041E805022D
:1026D0004AB1206850E8050F216820F0400041E829
:1026E0000502002ADAD1E06BC0B144F2C911C0F68C
:1026F00000014163FEF7C4F800283FF45BAEE06BD5
:10270000416B02B0BDE8B040084700BF2046FFF76C
:10271000DFFD0020606402B0B0BD00BF204602B003
:10272000BDE8B040FFF7D4BD401A216851E8031F4F
:10273000226821F4907142E80313DBB1216851E86B
:10274000031F226821F4907142E8031393B12168BA
:1027500051E8031F226821F4907142E803134BB142
:10276000216851E8031F226821F4907142E80313A5
:10277000002BDAD1216851E8051F226821F0010100
:1027800042E80513DBB1216851E8051F226821F0FA
:10279000010142E8051393B1216851E8051F226841
:1027A00021F0010142E805134BB1216851E8051FF2
:1027B000226821F0010142E80513002BDAD1202123
:1027C00084F8421000212163216851E8031F226828
:1027D00021F0100142E80313DBB1216851E8031F27
:1027E000226821F0100142E8031393B1216851E8F7
:1027F000031F226821F0100142E803134BB1216846
:1028000051E8031F226821F0100142E80313002B56
:10281000DAD1022281B22046626302B0BDE8B04044
:10282000FFF754BD216A31F8022B6FF35F2242603B
:1028300021628CE5002804BF0120704710B50446D2
:1028400090F8410028B9002084F84000204600F0AC
:1028500063F8242084F841002068D4E90212C36898
:1028600023F40053C360036923F440531A43026105
:10287000D4E904231143C268194341F20C639A431B
:102880001143C1604169A26921F44071114343F6CB
:102890000002C4F201029042416103D0FEF7EAFD5A
:1028A00002E000BFFEF7FAFD62681921484391007B
:1028B000B0FBF1F048F21F51C5F2EB11A0FB012370
:1028C0005A094FF69C73C0F6FF7302FB03003223D4
:1028D00003EB0010A0FB0101F02303EA5113206871
:1028E00003EB0212C1F3431111448160016921F429
:1028F00090410161416921F02A014161C16841F4BF
:102900000051C16000202021606484F8411084F8E7
:102910004210606310BD000070B586B040F6004400
:10292000C4F201040068A4F54441002688420496DC
:1029300002D006B070BD00BF41F21800C4F2020020
:10294000416802AD41F480214160416801F4802179
:1029500001910199016841F0080101600068294670
:1029600000F00800019001984FF48060029002206E
:102970000390032005902046FEF7E0F84FF4006036
:10298000CDE90206204629460496FEF7D7F827200F
:1029900001210022FEF752FC2720FEF73BFC06B087
:1029A00070BD000090F84230202B1CBF0220704701
:1029B00000294FF0010318BF002A01D118467047C3
:1029C00000230363816222218285C285436480F8EB
:1029D00042100169006819B1C16841F48071C16099
:1029E0004169002341F001014161C16841F02001CA
:1029F000C16018467047000070B540F2A806C2F2E8
:102A0000000600687168884200D070BD341D204601
:102A1000314601220125FFF7C5FF3078312803D068
:102A2000322818BF70BD002540F60000C4F2010036
:102A300001212A46FEF796F940F24401C2F2000154
:102A4000204602226423BDE8704000F001B8000077
:102A50002DE9F04381B0044690F84100202840F071
:102A6000B180884600294FF0010000F0D68016465C
:102A7000002A00F0D2800020606421201D4684F8E6
:102A80004100FEF775F9A684E684A1680646B1F513
:102A9000805F03D12069002800F0988047464FF0FE
:102AA0000008E18C2068002900F0968005F10109FA
:102AB0000BE000BF47B317F8011B4160E18C0139FF
:102AC000E184E18C002900F0878001680906F1D4D7
:102AD000B9F1000F0AD0EDB1FEF74AF9801BA84208
:102AE00018D8206801680906F6D5E3E701680906E9
:102AF000E0D4016809065CBF01685FEA0161D9D4CE
:102B000001680906F2D5D5E738F8021B00276FF3F4
:102B10005F21D2E7206850E8030F216820F4D070CD
:102B200041E80302BAB3206850E8030F216820F49B
:102B3000D07041E8030272B3206850E8030F2168A7
:102B400020F4D07041E803022AB3206850E8030F54
:102B5000216820F4D07041E80302002ADAD11AE09B
:102B6000206850E8050F216820F0010041E80502C7
:102B7000DAB1206850E8050F216820F0010041E833
:102B8000050292B1206850E8050F216820F001008D
:102B900041E805024AB1206850E8050F216820F09D
:102BA000010041E80502002ADAD1202084F8410022
:102BB00084F84200002084F84000032001B0BDE802
:102BC000F08300BF022001B0BDE8F0830027E18C54
:102BD000206800297FF46AAF0168490619D4FDB165
:102BE000691C0DD10168490613D4016849065CBF10
:102BF00001685FEA41610CD401684906F2D508E03A
:102C0000FEF7B6F8801BA8420AD820680068400684
:102C1000F6D5202084F84100002001B0BDE8F08303
:102C2000206850E8030F216820F4D07041E80302C7
:102C3000002A3ED0206850E8030F216820F4D070AD
:102C400041E80302AAB3206850E8030F216820F48A
:102C5000D07041E8030262B3206850E8030F216896
:102C600020F4D07041E80302002AD9D121E000BF4E
:102C7000206850E8050F216820F0010041E80502B6
:102C8000002A3FF492AF206850E8050F216820F039
:102C9000010041E80502002A3FF487AF206850E8B0
:102CA000050F216820F0010041E80502002A3FF4E9
:102CB0007CAF206850E8050F216820F0010041E852
:102CC0000502002AD4D170E770470000FEE700003B
:102CD00070B50368044653F8140F400711D40E462C
:102CE000481C29D086BB00BF1868400527D4FEF7D2
:102CF0003FF8236853F8140F400739D51868400788
:102D0000F2D5002070BD00BF18684007F9D41868DC
:102D1000400514D418684007F3D4186840050ED451
:102D200018684007EDD41868400508D418684007B3
:102D30004FF0000048BF70BD18684005E4D56FF43F
:102D400080601860042014E0154603E053F8140F67
:102D50004007D6D418684005F1D4FEF709F8401BA7
:102D60002368B042F2D958694007EFD4202000E030
:102D7000202000212022216384F83D2084F83E1089
:102D8000226C10432064012084F83C1070BD0000C8
:102D90002DE9F041054600681E46144601F47F0205
:102DA00001338FB242D0DDF81880B2F5803F40F099
:102DB000878040693840C01BB0FA80F04009A042CB
:102DC00040F0C8804EB924E040693840C01BB0FADA
:102DD00080F04009A04240F0BD80FDF7C9FFA0EBA4
:102DE00008012868B142EFD941693940C91BB1FADD
:102DF00081F14909A142E7D19BE000BF4069384019
:102E0000C01BB0FA80F04009A0424FF0000040F033
:102E1000A680FDF7ADFF286841693940C91BB1FAAA
:102E200081F14909A142E9D183E000BFB2F5803FB9
:102E300024D100BF41693940C91BB1FA81F1490968
:102E4000A14240F0878041693940C91BB1FA81F144
:102E50004909A14240F07E8041693940C91BB1FA5D
:102E600081F14909A14275D141693940C91BB1FAC3
:102E700081F14909A142DDD06CE000BF8169394090
:102E8000C91BB1FA81F14909A14263D18169394075
:102E9000C91BB1FA81F14909A1425BD1816939406D
:102EA000C91BB1FA81F14909A14253D18169394065
:102EB000C91BB1FA81F14909A142DFD04AE000BF44
:102EC00080693840C01BB0FA80F04009A04241D16F
:102ED00046B923E080693840C01BB0FA80F0400951
:102EE000A0423BD1FDF744FFA0EB08012868B142A6
:102EF000F0D981693940C91BB1FA81F14909A14270
:102F0000E8D116E080693840C01BB0FA80F0400973
:102F1000A0424FF0000018BFBDE8F081FDF728FF88
:102F2000286881693940C91BB1FA81F14909A14278
:102F3000E8D100202021286385F83D1085F83E0067
:102F4000296C41F02001296485F83C000120BDE88E
:102F5000F08100BF0020BDE8F08100BF0020BDE887
:102F6000F0810000F0B581B0044600681D46436959
:102F70008FB203EA0701B94202D1002001B0F0BDCF
:102F800041691646013201F4806125D0002940D103
:102F9000CEB100BFFDF7ECFE411B2068B14203D962
:102FA00041693940B9424BD141693940B942E4D015
:102FB00041694905EED52CE041693940B942DCD080
:102FC0004169490525D4FDF7D3FE206841693940A0
:102FD000B942F1D0202024E0D9B941693940B94241
:102FE000CBD04169490514D441693940B942C4D0B4
:102FF000416949050DD441693940B942BDD04169A3
:10300000490506D441693940B942B6D041694905FC
:10301000E3D5016841F4007101606FF480614161A2
:10302000042000212022216384F83D2084F83E10F2
:10303000226C1043206484F83C10012001B0F0BDE4
:103040002020EEE770B50368044653F8140F00061D
:1030500011D40E46481C29D086BB00BF1868400515
:1030600027D4FDF785FE236853F8140F000639D5E1
:1030700018680006F2D5002070BD00BF1868000671
:10308000F9D41868400514D418680006F3D41868F9
:1030900040050ED418680006EDD41868400508D421
:1030A000186800064FF0000048BF70BD1868400562
:1030B000E4D56FF480601860042014E0154603E046
:1030C00053F8140F0006D6D418684005F1D4FDF764
:1030D0004FFE401B2368B042F2D958690006EFD476
:1030E000202000E0202000212022216384F83D20C0
:1030F00084F83E10226C10432064012084F83C10B8
:1031000070BD00002DE9F04F83B002F031F932209C
:103110003226FDF70FFC02F02BF93220FDF70AFCF6
:1031200040F60C0040F25C14C1F61C00C2F2000430
:10313000029002AA20464E2104230096FDF7DAFEF3
:103140000A20FDF7F7FB3220FDF7F4FB48F68C0070
:10315000C3F63C00029002AA20464E2104230096AA
:10316000FDF7C8FE45F65D10C3F63D1002AD0290B6
:1031700020464E212A4604230096FDF7BBFE44F666
:103180004D10CDF6DD10029020464E212A46042334
:103190000096FDF7AFFE44F64D17C1F61D17204609
:1031A0004E212A46042302970096FDF7A3FE45F61A
:1031B0005D10C2F62D10029020464E212A460423AF
:1031C0000096FDF797FE45F65D10C4F64D1002908F
:1031D000804620464E212A4604230096FDF78AFEAB
:1031E00042F62D1BC0F60D1B20464E212A46042315
:1031F000CDF808B00096FDF77DFE44F64D10CCF6F4
:10320000CD10029020464E212A4604230096FDF759
:1032100071FE44F64D1ACFF6FD1A20464E212A467D
:103220000423CDF808A00096FDF764FE44F64D1087
:10323000C3F63D10029020464E212A4604230096F4
:10324000FDF758FE44F64D10CBF6BD100290204617
:103250004E212A4604230096FDF74CFE4CF6CC0086
:10326000C0F60C00029002AA20464E2104230096CC
:10327000FDF740FE44F64D10C4F64D1002AD02902D
:1032800020464E212A4604230096FDF733FE2046B1
:103290004E212A460423CDF808A00096FDF72AFE09
:1032A00020464E212A460423CDF808B00096FDF7AB
:1032B00021FE20464E212A46042302970096FDF760
:1032C00019FE44F64D10CEF6ED100290074620464A
:1032D0004E212A4604230096FDF70CFE20464E217F
:1032E0002A460423CDF808B00096FDF703FE2046D9
:1032F0004E212A460423CDF808800096FDF7FAFDFA
:1033000020464E212A460423CDF808A00096FDF75A
:10331000F1FD20464E212A460423CDF80880009670
:10332000FDF7E8FD20464E212A460423CDF808B0DB
:103330000096FDF7DFFD20464E212A460423029722
:103340000096FDF7D7FD44F64D10C7F67D100290AC
:1033500020464E212A4604230096FDF7CBFD44F675
:103360004D10C8F68D100290074620464E212A4681
:1033700004230096FDF7BEFD44F64D18C9F69D18CE
:1033800020464E212A460423CDF808800096FDF7FA
:10339000B1FD44F64D19C5F65D1920464E212A4669
:1033A0000423CDF808900096FDF7A4FD45F65D10C6
:1033B000C0F60D10029020464E212A4604230096A6
:1033C000FDF798FD4FF47A70FDF7B4FA40F60C0063
:1033D000C1F61C00029002AA20464E21042300964A
:1033E000FDF788FD0A20FDF7A5FA48F68C00C0F627
:1033F0000C00029002AA20464E2104230096FDF7FD
:1034000079FD02AD20464E212A46042302970096FC
:10341000FDF770FD20464E212A460423CDF8089082
:103420000096FDF767FD44F64D17CCF6CD17204604
:103430004E212A46042302970096FDF75BFD2046A5
:103440004E212A46042302970096FDF753FD20469D
:103450004E212A460423CDF808A00096FDF74AFD28
:1034600020464E212A460423CDF808B00096FDF7E9
:1034700041FD44F64D17CDF6DD1720464E212A4674
:10348000042302970096FDF735FD45F65D10C9F659
:103490009D10029020464E212A4604230096FDF7F7
:1034A00029FD20464E212A460423CDF808B0009677
:1034B000FDF720FD44F64D10C6F66D100290204633
:1034C0004E212A4604230096FDF714FD45F65D10B3
:1034D000C2F62D10029020464E212A460423009663
:1034E000FDF708FD20464E212A460423CDF808802A
:1034F0000096FDF7FFFC20464E212A460423CDF816
:1035000008900096FDF7F6FC44F64D10CEF6ED104F
:10351000029020464E212A4604230096FDF7EAFC3D
:1035200044F64D10C4F64D10029020464E212A4616
:1035300004230096FDF7DEFC42F62D18C1F61D1897
:1035400020464E212A460423CDF808800096FDF738
:10355000D1FC4CF6CC00C0F60C00029002AA20462A
:103560004E2104230096FDF7C5FC45F65D10C7F615
:103570007D1002AD029020464E212A46042300967B
:10358000FDF7B8FC20464E212A460423CDF80890CA
:103590000096FDF7AFFC44F64D10CCF6CD1002902E
:1035A00020464E212A4604230096FDF7A3FC44F64C
:1035B0004D10C3F63D10029020464E212A460423AA
:1035C0000096FDF797FC20464E212A460423CDF8AD
:1035D00008A00096FDF78EFC20464E212A460423C3
:1035E00002970096FDF786FC20464E212A460423CA
:1035F000CDF808900096FDF77DFC20464E212A4626
:103600000423CDF808B00096FDF774FC45F65D1074
:10361000C4F64D10029020464E212A4604230096FF
:10362000FDF768FC20464E212A460423CDF808A069
:103630000096FDF75FFC20464E212A460423CDF874
:1036400008B00096FDF756FC44F64D10C8F68D10F4
:10365000029020464E212A4604230096FDF74AFC9C
:1036600020464E212A460423CDF808A00096FDF7F7
:1036700041FC20464E212A46042302970096FDF77E
:1036800039FC20464E212A460423CDF808900096A6
:10369000FDF730FC20464E212A460423CDF8088051
:1036A0000096FDF727FC4FF4FA60FDF743F940F66A
:1036B0000C00C1F61C00029002AA20464E210423F1
:1036C0000096FDF717FC0A20FDF734F903B0BDE8BA
:1036D000F08F00002DE9F04184B040F60005C4F2FF
:1036E000010504462846102100224FF00008FDF78E
:1036F00039FB40F2B0161A20C2F200068DF80D0018
:1037000064270DF10D0103AA304601230097FEF74F
:1037100045F90DF10F010DF10E02304601238DF830
:103720000F800097FEF73AF9284610210122FDF795
:1037300019FB42F29300208002AF0C2021460222A6
:103740002346009700F08AF910B104B0BDE8F0817B
:1037500020786178A278E378484050402179584039
:10376000401A18BF0120400004B0BDE8F0810000FD
:10377000F0B583B040F60004C4F2010420461021E5
:103780000122FDF7EFFA04F5806001210122FDF727
:10379000E9FA0A20FDF7CEF8204610210022002782
:1037A000FDF7E0FA40F2B0150220C2F200058DF8F4
:1037B0000B0064260DF10B010DF10A0228460123CE
:1037C0000096FEF7EBF80F208DF80B000DF10B01C2
:1037D0000DF10A02284601230096FEF7DFF8204685
:1037E00010210122FDF7BEFA0A20FDF7A3F82046BA
:1037F00010210022FDF7B6FA54208DF80B000DF1D0
:103800000B010DF10A02284601230096FEF7C6F8C7
:103810008D208DF80B000DF10B010DF10A022846E9
:1038200001230096FEF7BAF8204610210122FDF789
:1038300099FA204610210022FDF794FA56208DF8BF
:103840000B000DF10B010DF10A0228460123009631
:10385000FEF7A4F83E208DF80B000DF10B010DF1E1
:103860000A02284601230096FEF798F82046102108
:103870000122FDF777FA204610210022FDF772FAA7
:103880005A208DF80B000DF10B010DF10A022846AC
:1038900001230096FEF782F81E208DF80B000DF133
:1038A0000B010DF10A02284601230096FEF776F877
:1038B000204610210122FDF755FA20461021002252
:1038C000FDF750FA58208DF80B000DF10B010DF1AA
:1038D0000A02284601230096FEF760F80DF10B015D
:1038E0000DF10A02284601238DF80B700096FEF7B1
:1038F00055F8204610210122FDF734FA2046102108
:103900000022FDF72FFA2A208DF80B000DF10B0194
:103910000DF10A02284601230096FEF73FF84020E9
:103920008DF80B000DF10B010DF10A022846012361
:103930000096FEF733F8204610210122FDF712FA17
:10394000204610210022FDF70DFA22208DF80B00F1
:103950000DF10B010DF10A02284601230096FEF736
:103960001DF83D208DF80B000DF10B010DF10A0241
:10397000284601230096FEF711F820461021012267
:10398000FDF7F0F9204610210022FDF7EBF9A82001
:103990008DF80B000DF10B010DF10A0228460123F1
:1039A0000096FDF7FBFF0DF10B010DF10A02284611
:1039B00001238DF80B700096FDF7F0FF20461021D3
:1039C0000122FDF7CFF91420032100F091FB03B091
:1039D000F0BD00002DE9F04184B040F60008C4F2CB
:1039E00001080C460546404610210022FDF7BAF9B1
:1039F00040F2B0171A20C2F200078DF80D006426BD
:103A00000DF10D0103AA384601230096FDF7C6FF0C
:103A100007208DF80F000DF10F010DF10E02384651
:103A200001230096FDF7BAFF404610210122FDF761
:103A300099F902AF0C2021460122234625700097F8
:103A400000F00CF802991029014618BF0221002845
:103A500018BF0221084604B0BDE8F0812DE9F04FFF
:103A600087B017460C2888460293049006D00E288B
:103A700008D111200590122007E000BF31200590E9
:103A8000772002E001200590002040F60006C4F2F5
:103A90000106039000F180053046102100224FF00E
:103AA0000009FDF75FF940F2B01A0420C2F2000AE3
:103AB0008DF81B0064240DF11B010DF11A02504614
:103AC00001230094FDF76AFF0DF11B010DF11A02AD
:103AD000504601238DF81B500094FDF75FFF3046E0
:103AE00010210122FDF73EF904208021FCF770FD32
:103AF0000A20802100F0FCFA304610210022FDF758
:103B000031F902208DF81B000DF11B010DF11A0295
:103B1000504601230094FDF741FF0DF11B010DF10B
:103B20001A02504601238DF81B900094FDF736FFD2
:103B3000304610210122FDF715F967B340F2B01AA3
:103B4000A8F10105C2F2000A0DF11B090DF11A08D6
:103B500015F801BF3046102100226424FDF702F958
:103B600012208DF81B00504649464246012300941E
:103B7000FDF714FF642450464946424601238DF860
:103B80001BB00094FDF70AFF304610210122FDF71B
:103B9000E9F8013FDCD1304610210022FDF7E2F8C0
:103BA00040F2B0170220C2F200078DF81B000DF1A1
:103BB0001B010DF11A02384601230094FDF7EEFEB9
:103BC000049D0DF11B010DF11A02384601238DF8F9
:103BD0001B500094FDF7E2FE304610210122FDF754
:103BE000C1F80C2D03D10D20802100F081FA4FF691
:103BF000300540F2B019CFF6FF754FF088084FF04E
:103C0000640AC2F200090DF11B0B0DF11A0400BF8A
:103C1000304610210022FDF7A5F8484659462246B5
:103C200001238DF81B80CDF800A0FDF7B7FE002022
:103C30008DF81B004846594622460123CDF800A0C6
:103C4000FDF7ACFE9DF81A70304610210122FDF7F9
:103C500089F8013538D205983842D9D00D20802115
:103C6000FCF7B6FC3046102100224FF00008FDF7AB
:103C700079F840F2B0148C20C2F200048DF81B00D9
:103C800064250DF11B010DF11A0220460123009558
:103C9000FDF784FE0DF11B010DF11A0220460123F0
:103CA0008DF81B800095FDF779FE9DF81A4030468F
:103CB00010210122FDF756F814F01B0F0ED002253B
:103CC000284607B0BDE8F08F0D208021FCF780FC6E
:103CD0000225284607B0BDE8F08F00BF039804997D
:103CE00038400C2900F00105EAD1304610210022AD
:103CF00010244FF00009FDF735F840F2B018942079
:103D0000C2F200088DF81B004FF0640A0DF11B0190
:103D10000DF11A0240460123CDF800A0FDF73EFE4A
:103D20000DF11B010DF11A02404601238DF81B9085
:103D3000CDF800A0FDF732FE9DF81A703046102134
:103D40000122FDF70FF8304610210022FDF70AF896
:103D500098208DF81B000DF11B010DF11A02404651
:103D60000123CDF800A0FDF719FE0DF11B010DF1A7
:103D70001A02404601238DF81B90CDF800A0FDF7F4
:103D80000DFE9DF81A80304610210122FCF7EAFF53
:103D900018F0070040EAC700A0F1080008BFF800CB
:103DA000102F38BF3C46002F109908BF0124002C6B
:103DB000086085D0029840F2B01BA0F10108C2F261
:103DC000000B0DF11B074FF0640A0DF11A09059560
:103DD000304610210022FCF7C5FF92208DF81B0011
:103DE000584639464A460123CDF800A0FDF7D6FDD6
:103DF00000208DF81B00584639464A460123CDF86D
:103E000000A0FDF7CBFD9DF81A503046102101228D
:103E1000FCF7A8FF013C08F8015FD9D1059D2846B1
:103E200007B0BDE8F08F0000FEE70000FEE70000ED
:103E3000704700002DE9F04182B01E4690460D46C5
:103E40000446FCF795FF301A00EB0807FCF790FFDB
:103E500040F24001C2F200010968C1F3CB3179435D
:103E6000019121688A682A40AA4227D1064618F1A2
:103E700001001FD0FCF77CFF801BB84222D20198C2
:103E800001990028A1F1010101912168896808BF09
:103E9000074601EA0500A842ECD00FE088682840F8
:103EA000A8420BD188682840A84207D188682840DA
:103EB000A84203D188682840A842EFD0002002B071
:103EC000BDE8F081D4E900014268B1F5827F22F0BB
:103ED000E00242600AD1A168B1F5004F02D0B1F50D
:103EE000806F03D1016821F040010160A16AB1F542
:103EF000005F07D1016821F400510160016841F4BD
:103F000000510160012084F85100002084F8500025
:103F1000032002B0BDE8F0817047000070B540F2A8
:103F2000F406C2F2000606F11F0426202146FFF720
:103F300051FDB0712046FFF7CDFBD6F81F100028C9
:103F4000716196F82310B071317618BF70BD40F6DC
:103F50000004C4F2010404F58065284620210122F2
:103F6000FCF700FFC820FCF7E5FC284620210022D2
:103F7000FCF7F8FEFCF7AAFA0546707001F0DEF9CE
:103F80000020002D00F09680002101F079FA46F221
:103F90009C20C0F6000001F0A1FA20460121012278
:103FA000FCF7E0FE4FF4FA70FCF7C4FC012002219C
:103FB00001F066FA06F1480546F2DA26C0F6000678
:103FC000284631460522FCF707F9284601F086FA13
:103FD0004FF4FA70FCF7AEFC4FF4FA70FCF7AAFC51
:103FE0000120022101F04CFA284631460422FCF758
:103FF000F3F8284601F072FA4FF4FA70FCF79AFCD5
:104000004FF4FA70FCF796FC0120022101F038FA17
:10401000284631460322FCF7DFF8284601F05EFA15
:104020004FF4FA70FCF786FC4FF4FA70FCF782FC50
:104030000120022101F024FA284631460222FCF731
:10404000CBF8284601F04AFA4FF4FA70FCF772FCFC
:104050004FF4FA70FCF76EFC0120022101F010FA17
:10406000284631460122FCF7B7F8284601F036FA17
:104070004FF4FA70FCF75EFC4FF4FA70FCF75AFC50
:104080000120022101F0FCF9284631460022FCF70C
:10409000A3F8284601F022FA4FF4FA70FCF74AFC24
:1040A000204601210022FCF75DFEBDE8704001F0D2
:1040B00045B900BF032101F0E3F90AA001F00EFAAF
:1040C0000120002101F0DCF946F2E820C0F60000F2
:1040D00001F004FA4FF47A70FCF72CFCBDE8704054
:1040E00001F02CB957524F4E472043415244210012
:1040F0002DE9F04784B040F60008C4F201088A4672
:1041000006464046102100224FF00009FCF72AFE27
:10411000802040F2B01540EA4600C2F200058DF85A
:10412000090064240DF1090102AA28460123009424
:10413000FDF734FC0DF10B010DF10A0228460123B5
:104140008DF80B900094FDF729FC9DF80A7040460D
:1041500010210122FCF706FE40461021002247EA0A
:104160000A07FCF7FFFD7E2000EA46008DF80D00EF
:104170000DF10D0103AA284601230094FDF70EFC62
:104180000DF10F010DF10E02284601238DF80F707D
:104190000094FDF703FC404610210122FCF7E2FDEC
:1041A00004B0BDE8F0870000FCF7CCBF704700000A
:1041B00040F20820C2F20000FDF766BF40F2502036
:1041C000C2F20000FDF760BF406A0021C185C184D2
:1041D000FEF77EB881B090F84210222921D1836881
:1041E0000246B3F5805F09D152F8281F52F8183CF7
:1041F000002B63D003685B680AE000BF52F8281FF9
:1042000013B90369002BF5D003685B6803F07F03E3
:104210000B70116801311160C18D01390A04C1852B
:1042200002D001B0704700BF0168CA6822F02002C6
:10423000CA60CA6822F48072CA604A6922F0010228
:104240004A61202180F8421000214163026B012A5B
:104250003CD10163016851E8031F026821F010019D
:1042600042E80313DBB1016851E8031F026821F043
:10427000100142E8031393B1016851E8031F02687B
:1042800021F0100142E803134BB1016851E8031F0C
:10429000026821F0100142E80313002BDAD1016813
:1042A0000A68D20606D5002200920A680092496880
:1042B00000910099818D01B0FEF708B8026852683C
:1042C0006FF35F2221F8022B8162A5E701B0FEF7B0
:1042D00093BB000040F2AC00C2F20000FDF7FABF51
:1042E000FEE700002DE9F04F81B001F027F8002033
:1042F000002101F0C5F846F26220C0F6000001F08E
:10430000EDF80120002101F0BBF846F24220C0F692
:10431000000001F0E3F840F2F407C2F2000700BF2A
:10432000387830B1387820B1387810B13878002832
:10433000F6D10024BC70387840F6004A4228C4F216
:10434000010A1DD13878422808D03878422805D093
:104350003878422802D038784228F3D150462021BC
:104360000122FCF7FFFCC820FCF7E4FA50462021AC
:104370000022FCF7F7FC01B0BDE8F04F00F0DEBF13
:1043800040F2080946F2622546F2422646F2F82833
:10439000C2F20009C0F60005C0F60006C0F600082B
:1043A00016E000BFFC7100F08BFD00F0C7FF00209D
:1043B000002101F065F8284601F090F80120002165
:1043C00001F05EF8304601F089F838784228B9D01B
:1043D000387888B3387841282ED0387842282BD0C6
:1043E0003878432828D03878442825D0387830B910
:1043F000387820B9387810B938780028F6D0B878ED
:1044000000F10A01002001F03BF8404601F066F897
:104410003878B9784A1C3944BA7048765046202119
:104420000122FCF79FFCC820FCF784FA50462021AB
:104430000022FCF797FC00BFB8780628C5D3787E29
:1044400099F820108842ADD1B87E99F821108842A1
:10445000A8D1F87E99F822108842A3D1387F99F824
:10446000231088429ED1787F99F82410884299D1F0
:10447000B87F99F82510401AB0FA80F04FEA501032
:10448000F8717FF490AF00200F21002400F0F8FFB6
:1044900046F22930C0F6000001F020F8BC7000F0B0
:1044A0004DFF0020002100F0EBFF46F28C20C0F60B
:1044B000000001F013F80120002100F0E1FF46F2B6
:1044C0004220C0F6000001F009F8387830B13878A1
:1044D00020B1387810B138780028F6D138784228E1
:1044E00010D1387842283FF439AF387842283FF469
:1044F00035AF387842283FF431AF38784228F0D1D0
:104500002CE700BF46F28C2B46F2422607F11F052E
:10451000C0F6000BC0F6000661A41FE000F00EFF1D
:104520000020012100F0ACFF67A000F0D7FF4FF49E
:104530007A70FCF7FFF900F001FF0020002100F085
:104540009FFF584600F0CAFF0120002100F098FFAD
:10455000304600F0C3FF38784228C2D026202946D2
:10456000FFF738FAB8712846FFF7B4F8D7F81F10EC
:104570000028796197F82310B8713976EBD150464D
:1045800020210122FCF7EEFBC820FCF7D3F95046AE
:1045900020210022FCF7E6FBFBF798FF0028387289
:1045A000BCD100F0F9FC97F8038000F0C7FE0020B2
:1045B000B8F1000F14D0022100F062FF34A000F027
:1045C0008DFF0120002100F05BFF204600F086FFF8
:1045D00001F0F2FBF8780028BDD101B0BDE8F08F02
:1045E000002100F04DFF46F2CC20C0F6000000F0A4
:1045F00075FF0120002100F043FF387907F14805DD
:10460000421C2CA12846FBF7E7FD284600F066FF78
:1046100038797A694FF6004800EB800007F12F05E2
:104620003B7EC0F6010829182A5040460B71FCF762
:104630009DF8404629461922FCF7E4F808F13207B4
:1046400009F12006384631460622FCF7DBF84046E1
:1046500029461922FCF79EF8384631460622FCF717
:1046600099F8504620210122FCF77CFBC820FCF77A
:1046700061F9504620210022FCF774FB4FF4FA60E8
:10468000FCF758F901B0BDE8F04F00F057BE00BF8D
:104690004D454D2049532046554C4C21000000000B
:1046A000412E5245504C41434520422E45584954D5
:1046B0000000000043415244202564204953205308
:1046C00041564544210000004341524420495320B3
:1046D000415641494C2100002DE9F04700F02EFEE3
:1046E00000200021002500F0CBFE46F27A20C0F623
:1046F000000000F0F3FE0120002100F0C1FE46F2B0
:104700008320C0F6000000F0E9FE40F2F404C2F29B
:104710000004A570207830B1207820B1207810B145
:1047200020780028F6D140F6004940F2080546F20C
:104730007A2646F2832746F2F828C4F20109C2F22B
:1047400000054FF0000AC0F60006C0F60007C0F6EC
:10475000000800BF207818B12078422800F00581B9
:10476000207888B3207841282ED0207842282BD07A
:104770002078432828D02078442825D0207830B9C4
:10478000207820B9207810B920780028F6D0A078B9
:1047900000F10801002000F073FE404600F09EFE8C
:1047A0002078A1784A1C2144A270487648462021EE
:1047B0000122FCF7D7FAC820FCF7BCF848462021B4
:1047C0000022FCF7CFFA00BFA0780628C2D3607E93
:1047D00095F8201088421FD1A07E95F821108842BC
:1047E0001AD1E07E95F82210884215D1207F95F8E5
:1047F0002310884210D1607F95F8241088420BD195
:10480000A07F95F82510401AB0FA80F04FEA5010BA
:10481000E07103D114E000BF84F807A000F050FB62
:104820000020002100F02CFE304600F057FE012051
:10483000002100F025FE384600F050FE8AE700BF58
:1048400000200F21002600F01BFE46F22930C0F6A2
:10485000000000F043FEA670207830B1207820B12F
:10486000207810B120780028F6D1002625E000BF7E
:10487000A07800F10801012000F002FE2178204616
:1048800000F8481F84F8496000F028FE2078A178DD
:104890004A1C2144A2704876484620210122FCF798
:1048A00061FAC820FCF746F8484620210022FCF7B0
:1048B00059FA00BFA078062820D2207810B12078BD
:1048C000422852D020780028F4D020784128F1D016
:1048D00020784228EED020784328EBD02078442856
:1048E000E8D020780028C3D120780028C0D12078D3
:1048F0000028BDD120780028F3D0B9E7D4F81900FA
:104900004FF60046B4F81D10C0F6010645F8200F1A
:104910003046A980FBF72AFF04F12F013046192207
:10492000FBF770FF06F1320029460622FBF76AFF0B
:1049300000F004FD0020002100F0A2FD15A000F011
:10494000CDFD4FF47A70FBF7F5FF48462021012298
:10495000FCF708FAC820FBF7EDFF484620210022AB
:10496000FCF700FAC820FBF7E5FF484620210122AA
:10497000FCF7F8F9C820FBF7DDFF484620210022AC
:104980000025FCF7EFF900F0D9FC6571A570BDE8D2
:10499000F08700BF50415353574F52442043484182
:1049A0004E474544210000002DE9F04F81B000F052
:1049B000C5FC0020002100F063FD46F26220C0F635
:1049C000000000F08BFD0120002100F059FD46F2AF
:1049D0004220C0F6000000F081FD40F2F40BC2F26C
:1049E000000B00BF9BF8000048B19BF8000030B1FD
:1049F0009BF8000018B19BF800000028F2D10027B6
:104A00008BF802709BF8000040F600444228C4F284
:104A1000010427D19BF8000042280BD09BF800002E
:104A2000422807D09BF80000422803D09BF80000E2
:104A30004228EFD1204620210122FCF793F9C8201B
:104A4000FBF778FF204620210022FCF78BF900F0CD
:104A500075FC00208BF805008BF8020001B0BDE862
:104A6000F08F00BF40F2080846F2622546F2422667
:104A700046F2F829C2F20008C0F60005C0F60006AA
:104A8000C0F6000918E000BF8BF8077000F018FAB4
:104A900000F054FC0020002100F0F2FC284600F059
:104AA0001DFD0120002100F0EBFC304600F016FD5A
:104AB0009BF800004228ADD09BF8000000283DD0B4
:104AC0009BF80000412839D09BF80000422835D0DF
:104AD0009BF80000432831D09BF8000044282DD0DB
:104AE0009BF8000048B99BF8000030B99BF8000023
:104AF00018B99BF800000028F2D09BF8020000F1E2
:104B00000A01002000F0BCFC484600F0E7FC9BF8DE
:104B100000009BF802104A1C59448BF8022048768A
:104B2000204620210122FCF71DF9C820FBF702FFD7
:104B3000204620210022FCF715F900BF9BF8020057
:104B40000628B5D39BF8190098F8201088429BD10D
:104B50009BF81A0098F82110884295D19BF81B0009
:104B600098F8221088427FF48FAF9BF81C0098F8C9
:104B7000231088427FF488AF9BF81D0098F824101A
:104B800088427FF481AF9BF81E0098F82510401AE8
:104B9000B0FA80F04FEA50108BF807007FF476AF40
:104BA00000200F21002500F06BFC46F22930C0F6F2
:104BB000000000F093FC8BF802508BF805509BF836
:104BC000000048B19BF8000030B19BF8000018B11C
:104BD0009BF800000028F2D100F0B0FB002000217B
:104BE00000F04EFCA5A000F079FC0120002100F0AF
:104BF00047FCA6A000F072FC9BF8000042281DD1E3
:104C00009BF8000042280BD09BF80000422807D0F8
:104C10009BF80000422803D09BF800004228EFD107
:104C2000204620210122FCF79DF8C820FBF782FED8
:104C3000204620210022FCF795F808E746F20B37C2
:104C400046F218360BF148090FF2542AC0F6000755
:104C5000C0F6000641E000BF204620210122FCF7FB
:104C600081F8C820FBF766FE204620210022FCF7D1
:104C700079F800F063FB0020002100F001FC46F20F
:104C8000BC20C0F6000000F029FC0120002100F04B
:104C9000F7FB46F2FA20C0F6000000F01FFC4FF4CC
:104CA0007A70FBF747FE00F049FB0020002100F07E
:104CB000E7FB46F25420C0F6000000F00FFC012094
:104CC000002100F0DDFB46F24220C0F6000000F0BB
:104CD00005FC9BF80000422892D09BF800000028B9
:104CE000F7D09BF800004128F3D09BF80000422841
:104CF000EFD09BF800004328EBD09BF8000044283D
:104D0000E7D09BF8000048B99BF8000030B99BF849
:104D1000000018B99BF800000028F2D00020002104
:104D200000F0AEFB9BF8002048465146FBF754FAD2
:104D3000484600F0D3FB9BF800502046202101227A
:104D4000FCF710F8C820FBF7F5FD204620210022D3
:104D5000FCF708F8A5F13100C0B204283FF67CAF9B
:104D6000CDF80090A5F1300900F0E8FA4FF0000A04
:104D70000020022100F084FB384600F0AFFB012048
:104D8000002100F07DFB304600F0A8FB9BF80000FE
:104D9000A8B39BF80000412803D09BF800004228EC
:104DA0002DD19BF80000B0F1410517D000F0C6FAF4
:104DB000002000214FF0000900F062FB46F2542071
:104DC000C0F6000000F08AFB0120002100F058FB33
:104DD00046F24220C0F6000000F080FBB5FA85F0F4
:104DE0004FEA501A204620210122FBF7BBFFC820C2
:104DF000FBF7A0FD204620210022FBF7B3FF5FEA6E
:104E0000CA7002D15FEA0960B2D15FFA89F0014647
:104E1000002818BF0121DDF800901AEA010F0FF2F7
:104E2000800A3FF456AF00EB80000BF12F044FF6E1
:104E3000004520440021C0F6010500F8011C40F89F
:104E4000051C2846FBF792FC284621461922FBF751
:104E5000D9FC05F1320008F120010622FBF7D2FC53
:104E600000F06CFA0020022100F00AFB10A000F014
:104E700035FB4FF47A70FBF75DFDE8E543484F30B2
:104E8000534520434152443A20000000422E204224
:104E900061636B20746F20486F6D65210000000016
:104EA00053454C45435420434152443A2025630026
:104EB00044454C45544544204341524421000000A0
:104EC00070B540F2F405C2F2000568790130C1B254
:104ED000032968714FF0000026D36871A87000F0B4
:104EE0002DFA0020002100F0CBFA21A000F0F6FA04
:104EF0001E24483523A600BF0120002100F0C0FA7F
:104F0000284631462246FBF767F9284600F0E6FAC4
:104F10004FF47A70FBF70EFD013C601CECD1BDE84C
:104F2000704000F00BBA00BFA87000F007FA002034
:104F3000012100F0A5FA0AA000F0D0FA012000211A
:104F400000F09EFA46F2E820C0F6000000F0C6FA33
:104F50004FF47A70FBF7EEFCBDE8704000F0EEB95C
:104F600050415353574F52442057524F4E47210000
:104F7000544F4F204D554348204D495354414B45C4
:104F80005300000057616974202564207365636FC6
:104F90006E6473210000000040F2F400C2F20000D1
:104FA0000021C17090F82F1059B990F8301041B914
:104FB00090F8311029B990F8321011B990F83310E7
:104FC00009B10121C170C17800294FF000015FD003
:104FD000C17090F8341000295ED190F83510002986
:104FE0005AD190F83610002956D190F83710002980
:104FF00052D190F8381000294ED1C178002950D0F4
:105000000021C17090F8391000294FD190F83A1062
:1050100000294BD190F83B10002947D190F83C1063
:10502000002943D190F83D1000293FD1C1780029D3
:1050300041D00021C17090F83E10002940D190F875
:105040003F1000293CD190F84010C9BB90F84110A6
:10505000B1BB90F8421099BBC178B1B30021C170C7
:1050600090F8431059B990F8441041B990F84510A0
:1050700029B990F8461011B990F8471009B10121EB
:10508000C170C17800291EBF0121C1707047042181
:1050900001710021C17070470121C170C1780029E0
:1050A000AED1012101710021C17070470121C17091
:1050B000C1780029BDD1022101710021C170704762
:1050C0000121C170C1780029C8D1032101710021DB
:1050D000C1707047B0B540F20804C2F20004206904
:1050E0004FF4807100220025FBF73CFE60694FF40D
:1050F00000710122FBF736FEA0694FF480610122A6
:10510000FBF730FEE0694FF400610122FBF72AFE55
:1051100020684FF48051FBF71FFE002800F0E58067
:1051200060684FF40051FBF717FE002800F0B880CC
:10513000A0684FF48041FBF70FFE002800F0B68016
:10514000E0684FF40041FBF707FE002800F0B48050
:1051500020694FF4807101220125FBF703FE60698D
:105160004FF400710022FBF7FDFDA0694FF4806150
:105170000122FBF7F7FDE0694FF400610122FBF724
:10518000F1FD20684FF48051FBF7E6FD002800F0A8
:10519000AC8060684FF40051FBF7DEFD002800F0A2
:1051A0009180A0684FF48041FBF7D6FD002800F005
:1051B0008F80E0684FF40041FBF7CEFD002800F03F
:1051C0008D8020694FF480710122FBF7CBFD60696F
:1051D0004FF400710122FBF7C5FDA0694FF4806117
:1051E0000022FBF7BFFDE0694FF400610122FBF7ED
:1051F000B9FD20684FF48051FBF7AEFD002873D055
:1052000060684FF40051FBF7A7FD002872D0A0683A
:105210004FF48041FBF7A0FD002871D0E0684FF407
:105220000041FBF799FD002870D020694FF4807190
:105230000122FBF797FD60694FF400710122FBF733
:1052400091FDA0694FF480610122FBF78BFDE069BD
:105250004FF400610022FBF785FD20684FF4805178
:10526000FBF77AFD002857D060684FF40051FBF738
:1052700073FD002856D0A0684FF48041FBF76CFD09
:10528000002855D0E0684FF40041FBF765FD002889
:105290001CBF0020B0BD0320204432300078B0BDD8
:1052A000002020442A300078B0BD00BF00202044F8
:1052B0002E300078B0BD00BF00202044323000788E
:1052C000B0BD00BF012020442A300078B0BD00BF2F
:1052D000012020442E300078B0BD00BF01202044C2
:1052E00032300078B0BD00BF02256019263000784A
:1052F000B0BD00BF022020442A300078B0BD00BFFE
:10530000022020442E300078B0BD00BF022020448F
:1053100032300078B0BD00BF032560192630007818
:10532000B0BD00BF032020442A300078B0BD00BFCC
:10533000032020442E300078B0BD000080B582B03C
:1053400040F60C00C1F61C00019040F25C104FF0DA
:10535000320CC2F2000001AA4E210423CDF800C095
:10536000FBF7C8FD0A20FBF7E5FA02B080BD00009C
:1053700070B582B032203225FBF7DCFA40F25C14C3
:1053800040F60C06C2F20004C3F63C0601AA204611
:105390004E21042301960095FBF7ACFD0520FBF799
:1053A000C9FA01AA20464E21042301960095FBF775
:1053B000A1FD0120FBF7BEFA01AA20464E210423DD
:1053C00001960095FBF796FD0A20FBF7B3FA40F62D
:1053D0000C00C2F62C00019001AA20464E210423A5
:1053E0000095FBF787FD0A20FBF7A4FA42F62C0094
:1053F000C8F68C00019001AA20464E210423009596
:10540000FBF778FD0120FBF795FA40F60C00C8F693
:105410008C00019001AA20464E2104230095FBF741
:1054200069FD0120FBF786FA40F60C00C1F61C006E
:10543000019001AA20464E2104230095FBF75AFD56
:105440000120FBF777FA40F60C00C6F66C000190DD
:1054500001AA20464E2104230095FBF74BFD0120B5
:10546000FBF768FA40F60C00CCF6CC00019001AADC
:1054700020464E2104230095FBF73CFD02B070BD91
:10548000012805D0002808BF41F0800102E000BFDC
:1054900041F0C00180B582B021F00F00090100F198
:1054A0000C0208308DF8050001F10C008DF80600A3
:1054B00001F108008DF8070040F25C108DF804201F
:1054C0004FF0320CC2F2000001AA4E210423CDF8A5
:1054D00000C0FBF70FFD02B080BD0000F0B583B047
:1054E000017821B340F25C14461E3227C2F2000458
:1054F00002AD00BF21F00F00090100F10D020930DB
:105500008DF8090001F10D008DF80A0001F1090084
:105510008DF808208DF80B0020464E212A460423E2
:105520000097FBF7E7FCB17801360029E2D103B020
:10553000F0BD000090B0FBF713FE00240120CDE980
:105540000B44CDE9094406900A904FF4E0104FF463
:10555000803102250F9006A8CDE90714CDE90D5141
:10556000FBF7B0FF20B1EFF3108072B6FEE700BF8B
:105570000F20CDE900058020CDE902046846022114
:105580000494FBF797FE28B1EFF3108072B600BFCA
:10559000FEE700BF41F21800C4F20200016840F6C5
:1055A000000841F0100101600168C4F2010801F037
:1055B000100106910699016808F5006741F0200185
:1055C00001600168002201F020010691069901683E
:1055D0004FF4604641F0040101600168002401F0CD
:1055E000040106910699016841F008010160006814
:1055F0004FF4604100F00800069006983846FBF72B
:10560000B1FB4046112100224FF0110BFBF7AAFB22
:1056100008F58065284643F221010022FBF7A2FB32
:1056200028464FF4404101224FF00109FBF79AFB55
:10563000CDE9066906AE4FF0020A384631460894B5
:10564000CDF824A0FBF77AFA40463146CDE906B9F9
:10565000CDE9084AFBF772FA0020C1F221000827C1
:10566000CDE90709404631460697FBF767FA4FF246
:105670002100CDE9060928463146CDE9084AFBF765
:105680005DFA4FF4706006A981E811024046314688
:10569000FBF754FA40F25C10A8F53441C2F2000066
:1056A00048F2A0624FF48043C0F2010280E8160085
:1056B000C0E90343C0E90544C0E90744FBF75EFBCA
:1056C00020B1EFF3108072B6FEE700BF40F2B010D9
:1056D00008F52051C2F200004FF482724FF40073BB
:1056E00080E816000A21C0E90344C0E90543C76108
:1056F000C0E90844C0E90A41FCF7BEF820B1EFF365
:10570000108072B6FEE700BF40F250200021C2F2C6
:1057100000004FF08042B32340F2E7370991CDE912
:105720000711CDE90011C0E90023C0E902170161AA
:105730008161FCF7F3FA28B1EFF3108072B600BF75
:10574000FEE700BF4FF48050069040F25020C2F2B6
:10575000000006A9FCF7C8FB20B1EFF3108072B679
:10576000FEE700BF40F25020C2F200006946FCF79D
:1057700097FA28B1EFF3108072B600BFFEE700BFC2
:1057800040F20820002108F51052C2F2000040F259
:10579000671340F2E7370991CDE90711CDE9001110
:1057A000C0E90023C0E90217C0E904118161FCF7D8
:1057B000B5FA28B1EFF3108072B600BFFEE700BF64
:1057C0004FF48050069040F20820C2F2000006A973
:1057D000FCF78AFB20B1EFF3108072B6FEE700BF42
:1057E00040F20820C2F200006946FCF759FA28B1DD
:1057F000EFF3108072B600BFFEE700BF40F2A804CE
:10580000C2F20004A8F54041204640F8041F4FF4BE
:10581000165100220C23C0E90112C0E90322C0E99D
:105820000532C261FDF706F820B1EFF3108072B6C1
:10583000FEE700BF00F008F8201D21460122FDF719
:10584000B1F800F05DF8FCE770B584B040F20820D4
:10585000C2F20000FCF710FB40F25020C2F2000040
:10586000FCF70AFB40F2080500204FF47041C2F239
:1058700000050390CDE9001028686C4601262146FA
:105880000296FBF75BF968682146FBF757F9A868B1
:105890002146FBF753F9E8682146FBF74FF94FF42F
:1058A0007060CDE900060221286903912146FBF7CB
:1058B00045F968692146FBF741F9A8692146FBF7DC
:1058C0003DF9E8692146FBF739F9FDF751FFFDF78E
:1058D00019FC40F2F4004FF60044C2F20000C0F69A
:1058E000010400F12F0120461922FAF753FF04F1B9
:1058F000320005F120010622FAF74CFF04B070BD1A
:10590000B0B5FEF70BFB40F2F404C2F200042078BD
:10591000413803285CD8DFE800F003192F4500BFA9
:1059200040F60044C4F20104204620210122FBF786
:1059300019FAC820FAF7FEFF204620210022FBF7C3
:1059400011FABDE8B04000F0D7B800BF40F60044FF
:10595000C4F20104204620210122FBF703FAC820EB
:10596000FAF7E8FF204620210022FBF7FBF9BDE80B
:10597000B040FEF7B1BE00BF40F60044C4F20104DF
:10598000204620210122FBF7EDF9C820FAF7D2FFCB
:10599000204620210022FBF7E5F9BDE8B040FEF7E4
:1059A000A1BC00BF40F60044C4F2010420462021FF
:1059B0000122FBF7D7F9C820FAF7BCFF20462021C7
:1059C0000022FBF7CFF9BDE8B040FEF7EDBF00BF06
:1059D000607A013803284CD8DFE800F0021426383A
:1059E00000200121FFF74CFD46F2AD20C0F600007B
:1059F000FFF774FD01200021FFF742FD34A0FFF7FF
:105A00006DFD36E000200121FFF73AFD46F2AD20A2
:105A1000C0F60000FFF762FD01200021FFF730FD16
:105A200027A0FFF75BFD24E000200121FFF728FD00
:105A300046F2AD20C0F60000FFF750FD0120002126
:105A4000FFF71EFD1AA0FFF749FD12E0002001211B
:105A50000025FFF715FD46F2AD20C0F60000FFF768
:105A60003DFD01200021FFF70BFD0DA0FFF736FDE6
:105A70006572FBF77DF9E168401A40F6C41188426F
:105A800038BFB0BDFBF774F9E06001200021FFF7DB
:105A9000F7FC14A0FFF722FD607A01306072B0BD00
:105AA000442E44454C455445204341524400000097
:105AB000432E414444204E45572043415244000068
:105AC000422E4348414E47452050415353574400CE
:105AD000412E454E5445522050415353574F524446
